{
  "_format": "hh-sol-artifact-1",
  "contractName": "DecentralizedEscrow",
  "sourceName": "contracts/DecentralizedEscrow.sol",
  "abi": [
    {
      "inputs": [],
      "stateMutability": "nonpayable",
      "type": "constructor"
    },
    {
      "anonymous": false,
      "inputs": [
        {
          "indexed": true,
          "internalType": "uint256",
          "name": "escrowId",
          "type": "uint256"
        },
        {
          "indexed": false,
          "internalType": "address",
          "name": "raisedBy",
          "type": "address"
        }
      ],
      "name": "DisputeRaised",
      "type": "event"
    },
    {
      "anonymous": false,
      "inputs": [
        {
          "indexed": true,
          "internalType": "uint256",
          "name": "escrowId",
          "type": "uint256"
        },
        {
          "indexed": false,
          "internalType": "address",
          "name": "recipient",
          "type": "address"
        },
        {
          "indexed": false,
          "internalType": "uint256",
          "name": "amount",
          "type": "uint256"
        }
      ],
      "name": "DisputeResolved",
      "type": "event"
    },
    {
      "anonymous": false,
      "inputs": [
        {
          "indexed": true,
          "internalType": "uint256",
          "name": "escrowId",
          "type": "uint256"
        },
        {
          "indexed": true,
          "internalType": "address",
          "name": "buyer",
          "type": "address"
        },
        {
          "indexed": true,
          "internalType": "address",
          "name": "seller",
          "type": "address"
        },
        {
          "indexed": false,
          "internalType": "uint256",
          "name": "amount",
          "type": "uint256"
        }
      ],
      "name": "EscrowCreated",
      "type": "event"
    },
    {
      "anonymous": false,
      "inputs": [
        {
          "indexed": true,
          "internalType": "uint256",
          "name": "escrowId",
          "type": "uint256"
        },
        {
          "indexed": true,
          "internalType": "uint256",
          "name": "milestoneIndex",
          "type": "uint256"
        },
        {
          "indexed": false,
          "internalType": "uint256",
          "name": "amount",
          "type": "uint256"
        }
      ],
      "name": "MilestoneApproved",
      "type": "event"
    },
    {
      "anonymous": false,
      "inputs": [
        {
          "indexed": true,
          "internalType": "uint256",
          "name": "escrowId",
          "type": "uint256"
        },
        {
          "indexed": true,
          "internalType": "uint256",
          "name": "milestoneIndex",
          "type": "uint256"
        }
      ],
      "name": "MilestoneCompleted",
      "type": "event"
    },
    {
      "inputs": [
        {
          "internalType": "uint256",
          "name": "escrowId",
          "type": "uint256"
        }
      ],
      "name": "approveMilestone",
      "outputs": [],
      "stateMutability": "nonpayable",
      "type": "function"
    },
    {
      "inputs": [
        {
          "internalType": "address",
          "name": "seller",
          "type": "address"
        },
        {
          "internalType": "uint256",
          "name": "milestoneCount",
          "type": "uint256"
        }
      ],
      "name": "createEscrow",
      "outputs": [],
      "stateMutability": "payable",
      "type": "function"
    },
    {
      "inputs": [],
      "name": "escrowCounter",
      "outputs": [
        {
          "internalType": "uint256",
          "name": "",
          "type": "uint256"
        }
      ],
      "stateMutability": "view",
      "type": "function"
    },
    {
      "inputs": [
        {
          "internalType": "uint256",
          "name": "",
          "type": "uint256"
        }
      ],
      "name": "escrows",
      "outputs": [
        {
          "internalType": "address",
          "name": "buyer",
          "type": "address"
        },
        {
          "internalType": "address",
          "name": "seller",
          "type": "address"
        },
        {
          "internalType": "uint256",
          "name": "amount",
          "type": "uint256"
        },
        {
          "internalType": "enum DecentralizedEscrow.EscrowStatus",
          "name": "status",
          "type": "uint8"
        },
        {
          "internalType": "uint256",
          "name": "currentMilestone",
          "type": "uint256"
        }
      ],
      "stateMutability": "view",
      "type": "function"
    },
    {
      "inputs": [
        {
          "internalType": "uint256",
          "name": "escrowId",
          "type": "uint256"
        }
      ],
      "name": "markMilestoneComplete",
      "outputs": [],
      "stateMutability": "nonpayable",
      "type": "function"
    },
    {
      "inputs": [
        {
          "internalType": "uint256",
          "name": "",
          "type": "uint256"
        },
        {
          "internalType": "uint256",
          "name": "",
          "type": "uint256"
        }
      ],
      "name": "milestones",
      "outputs": [
        {
          "internalType": "uint256",
          "name": "amount",
          "type": "uint256"
        },
        {
          "internalType": "bool",
          "name": "released",
          "type": "bool"
        }
      ],
      "stateMutability": "view",
      "type": "function"
    },
    {
      "inputs": [],
      "name": "owner",
      "outputs": [
        {
          "internalType": "address",
          "name": "",
          "type": "address"
        }
      ],
      "stateMutability": "view",
      "type": "function"
    },
    {
      "inputs": [
        {
          "internalType": "uint256",
          "name": "escrowId",
          "type": "uint256"
        }
      ],
      "name": "raiseDispute",
      "outputs": [],
      "stateMutability": "nonpayable",
      "type": "function"
    },
    {
      "inputs": [
        {
          "internalType": "uint256",
          "name": "escrowId",
          "type": "uint256"
        },
        {
          "internalType": "bool",
          "name": "paySeller",
          "type": "bool"
        }
      ],
      "name": "resolveDispute",
      "outputs": [],
      "stateMutability": "nonpayable",
      "type": "function"
    }
  ],
  "bytecode": "0x6080604052348015600f57600080fd5b5033600360006101000a81548173ffffffffffffffffffffffffffffffffffffffff021916908373ffffffffffffffffffffffffffffffffffffffff160217905550611f4e806100606000396000f3fe6080604052600436106100865760003560e01c80638da5cb5b116100595780638da5cb5b1461014f578063a5c1674e1461017a578063c438b40f146101a3578063c7ceafea146101cc578063ee9a5432146101f757610086565b8063012f52ee1461008b5780631c376c63146100cc57806334b25ee21461010a5780634614874e14610133575b600080fd5b34801561009757600080fd5b506100b260048036038101906100ad91906113c5565b610220565b6040516100c39594939291906114b9565b60405180910390f35b3480156100d857600080fd5b506100f360048036038101906100ee919061150c565b6102a3565b604051610101929190611567565b60405180910390f35b34801561011657600080fd5b50610131600480360381019061012c91906115bc565b6102f1565b005b61014d60048036038101906101489190611628565b61071b565b005b34801561015b57600080fd5b50610164610b84565b6040516101719190611668565b60405180910390f35b34801561018657600080fd5b506101a1600480360381019061019c91906113c5565b610baa565b005b3480156101af57600080fd5b506101ca60048036038101906101c591906113c5565b610d8d565b005b3480156101d857600080fd5b506101e1611163565b6040516101ee9190611683565b60405180910390f35b34801561020357600080fd5b5061021e600480360381019061021991906113c5565b611169565b005b60006020528060005260406000206000915090508060000160009054906101000a900473ffffffffffffffffffffffffffffffffffffffff16908060010160009054906101000a900473ffffffffffffffffffffffffffffffffffffffff16908060020154908060030160009054906101000a900460ff16908060040154905085565b600160205281600052604060002081815481106102bf57600080fd5b9060005260206000209060020201600091509150508060000154908060010160009054906101000a900460ff16905082565b600360009054906101000a900473ffffffffffffffffffffffffffffffffffffffff1673ffffffffffffffffffffffffffffffffffffffff163373ffffffffffffffffffffffffffffffffffffffff1614610381576040517f08c379a0000000000000000000000000000000000000000000000000000000008152600401610378906116fb565b60405180910390fd5b600360149054906101000a900460ff16156103d1576040517f08c379a00000000000000000000000000000000000000000000000000000000081526004016103c890611767565b60405180910390fd5b6001600360146101000a81548160ff021916908315150217905550600080600084815260200190815260200160002090506002600381111561041657610415611442565b5b8160030160009054906101000a900460ff16600381111561043a57610439611442565b5b1461047a576040517f08c379a0000000000000000000000000000000000000000000000000000000008152600401610471906117d3565b60405180910390fd5b600080826004015490505b600160008681526020019081526020016000208054905081101561058b576001600086815260200190815260200160002081815481106104c8576104c76117f3565b5b906000526020600020906002020160010160009054906101000a900460ff1661057e576001600086815260200190815260200160002081815481106105105761050f6117f3565b5b9060005260206000209060020201600001548261052d9190611851565b915060018060008781526020019081526020016000208281548110610555576105546117f3565b5b906000526020600020906002020160010160006101000a81548160ff0219169083151502179055505b8080600101915050610485565b5060038260030160006101000a81548160ff021916908360038111156105b4576105b3611442565b5b02179055506000836105ea578260000160009054906101000a900473ffffffffffffffffffffffffffffffffffffffff16610610565b8260010160009054906101000a900473ffffffffffffffffffffffffffffffffffffffff165b905060008173ffffffffffffffffffffffffffffffffffffffff1683604051610638906118b6565b60006040518083038185875af1925050503d8060008114610675576040519150601f19603f3d011682016040523d82523d6000602084013e61067a565b606091505b50509050806106be576040517f08c379a00000000000000000000000000000000000000000000000000000000081526004016106b590611917565b60405180910390fd5b857fdf0baf5489595ea17a097d16827d60793e2f57f3b85a982e5d7e02838b841ee683856040516106f0929190611937565b60405180910390a2505050506000600360146101000a81548160ff0219169083151502179055505050565b600360149054906101000a900460ff161561076b576040517f08c379a000000000000000000000000000000000000000000000000000000000815260040161076290611767565b60405180910390fd5b6001600360146101000a81548160ff021916908315150217905550600034116107c9576040517f08c379a00000000000000000000000000000000000000000000000000000000081526004016107c0906119ac565b60405180910390fd5b600073ffffffffffffffffffffffffffffffffffffffff168273ffffffffffffffffffffffffffffffffffffffff1603610838576040517f08c379a000000000000000000000000000000000000000000000000000000000815260040161082f90611a18565b60405180910390fd5b3373ffffffffffffffffffffffffffffffffffffffff168273ffffffffffffffffffffffffffffffffffffffff16036108a6576040517f08c379a000000000000000000000000000000000000000000000000000000000815260040161089d90611a84565b60405180910390fd5b600081116108e9576040517f08c379a00000000000000000000000000000000000000000000000000000000081526004016108e090611af0565b60405180910390fd5b600260008154809291906108fc90611b10565b91905055506040518060a001604052803373ffffffffffffffffffffffffffffffffffffffff1681526020018373ffffffffffffffffffffffffffffffffffffffff1681526020013481526020016000600381111561095e5761095d611442565b5b81526020016000815250600080600254815260200190815260200160002060008201518160000160006101000a81548173ffffffffffffffffffffffffffffffffffffffff021916908373ffffffffffffffffffffffffffffffffffffffff16021790555060208201518160010160006101000a81548173ffffffffffffffffffffffffffffffffffffffff021916908373ffffffffffffffffffffffffffffffffffffffff1602179055506040820151816002015560608201518160030160006101000a81548160ff02191690836003811115610a3f57610a3e611442565b5b02179055506080820151816004015590505060008134610a5f9190611b87565b905060005b82811015610afb5760016000600254815260200190815260200160002060405180604001604052808481526020016000151581525090806001815401808255809150506001900390600052602060002090600202016000909190919091506000820151816000015560208201518160010160006101000a81548160ff02191690831515021790555050508080600101915050610a64565b508273ffffffffffffffffffffffffffffffffffffffff163373ffffffffffffffffffffffffffffffffffffffff166002547f9405ad0a6208539879349284d71265479b1623846f70303da1f9890d6e8c10a734604051610b5c9190611683565b60405180910390a4506000600360146101000a81548160ff0219169083151502179055505050565b600360009054906101000a900473ffffffffffffffffffffffffffffffffffffffff1681565b600080600083815260200190815260200160002090508060000160009054906101000a900473ffffffffffffffffffffffffffffffffffffffff1673ffffffffffffffffffffffffffffffffffffffff163373ffffffffffffffffffffffffffffffffffffffff161480610c6d57508060010160009054906101000a900473ffffffffffffffffffffffffffffffffffffffff1673ffffffffffffffffffffffffffffffffffffffff163373ffffffffffffffffffffffffffffffffffffffff16145b610cac576040517f08c379a0000000000000000000000000000000000000000000000000000000008152600401610ca390611c04565b60405180910390fd5b60016003811115610cc057610cbf611442565b5b8160030160009054906101000a900460ff166003811115610ce457610ce3611442565b5b14610d24576040517f08c379a0000000000000000000000000000000000000000000000000000000008152600401610d1b90611c70565b60405180910390fd5b60028160030160006101000a81548160ff02191690836003811115610d4c57610d4b611442565b5b0217905550817f84a477df8a28a4276ca6dee4458a06c3015f30c477d9c949ede4e13ff8a552b433604051610d819190611668565b60405180910390a25050565b600360149054906101000a900460ff1615610ddd576040517f08c379a0000000000000000000000000000000000000000000000000000000008152600401610dd490611767565b60405180910390fd5b6001600360146101000a81548160ff021916908315150217905550600080600083815260200190815260200160002090508060000160009054906101000a900473ffffffffffffffffffffffffffffffffffffffff1673ffffffffffffffffffffffffffffffffffffffff163373ffffffffffffffffffffffffffffffffffffffff1614610ea0576040517f08c379a0000000000000000000000000000000000000000000000000000000008152600401610e9790611cdc565b60405180910390fd5b60016003811115610eb457610eb3611442565b5b8160030160009054906101000a900460ff166003811115610ed857610ed7611442565b5b14610f18576040517f08c379a0000000000000000000000000000000000000000000000000000000008152600401610f0f90611d48565b60405180910390fd5b6000816004015490506000600160008581526020019081526020016000208281548110610f4857610f476117f3565b5b906000526020600020906002020190508060010160009054906101000a900460ff1615610faa576040517f08c379a0000000000000000000000000000000000000000000000000000000008152600401610fa190611db4565b60405180910390fd5b60018160010160006101000a81548160ff021916908315150217905550826004016000815480929190610fdc90611b10565b919050555060008360010160009054906101000a900473ffffffffffffffffffffffffffffffffffffffff1673ffffffffffffffffffffffffffffffffffffffff16826000015460405161102f906118b6565b60006040518083038185875af1925050503d806000811461106c576040519150601f19603f3d011682016040523d82523d6000602084013e611071565b606091505b50509050806110b5576040517f08c379a00000000000000000000000000000000000000000000000000000000081526004016110ac90611e20565b60405180910390fd5b82857f6e3fd8bb18eed6833ae758e07c361bf145ce27c88bdf6d5029ddabf188d72ca684600001546040516110ea9190611683565b60405180910390a360016000868152602001908152602001600020805490508460040154036111415760038460030160006101000a81548160ff0219169083600381111561113b5761113a611442565b5b02179055505b505050506000600360146101000a81548160ff02191690831515021790555050565b60025481565b600080600083815260200190815260200160002090508060010160009054906101000a900473ffffffffffffffffffffffffffffffffffffffff1673ffffffffffffffffffffffffffffffffffffffff163373ffffffffffffffffffffffffffffffffffffffff1614611211576040517f08c379a000000000000000000000000000000000000000000000000000000000815260040161120890611e8c565b60405180910390fd5b6000600381111561122557611224611442565b5b8160030160009054906101000a900460ff16600381111561124957611248611442565b5b148061128a57506001600381111561126457611263611442565b5b8160030160009054906101000a900460ff16600381111561128857611287611442565b5b145b6112c9576040517f08c379a00000000000000000000000000000000000000000000000000000000081526004016112c090611d48565b60405180910390fd5b6000816004015490506001600084815260200190815260200160002080549050811061132a576040517f08c379a000000000000000000000000000000000000000000000000000000000815260040161132190611ef8565b60405180910390fd5b60018260030160006101000a81548160ff0219169083600381111561135257611351611442565b5b021790555080837f1b7218c0ac23ea9cbe4df603d2b340fbf469a115b73ea3d11460727f445d6be160405160405180910390a3505050565b600080fd5b6000819050919050565b6113a28161138f565b81146113ad57600080fd5b50565b6000813590506113bf81611399565b92915050565b6000602082840312156113db576113da61138a565b5b60006113e9848285016113b0565b91505092915050565b600073ffffffffffffffffffffffffffffffffffffffff82169050919050565b600061141d826113f2565b9050919050565b61142d81611412565b82525050565b61143c8161138f565b82525050565b7f4e487b7100000000000000000000000000000000000000000000000000000000600052602160045260246000fd5b6004811061148257611481611442565b5b50565b600081905061149382611471565b919050565b60006114a382611485565b9050919050565b6114b381611498565b82525050565b600060a0820190506114ce6000830188611424565b6114db6020830187611424565b6114e86040830186611433565b6114f560608301856114aa565b6115026080830184611433565b9695505050505050565b600080604083850312156115235761152261138a565b5b6000611531858286016113b0565b9250506020611542858286016113b0565b9150509250929050565b60008115159050919050565b6115618161154c565b82525050565b600060408201905061157c6000830185611433565b6115896020830184611558565b9392505050565b6115998161154c565b81146115a457600080fd5b50565b6000813590506115b681611590565b92915050565b600080604083850312156115d3576115d261138a565b5b60006115e1858286016113b0565b92505060206115f2858286016115a7565b9150509250929050565b61160581611412565b811461161057600080fd5b50565b600081359050611622816115fc565b92915050565b6000806040838503121561163f5761163e61138a565b5b600061164d85828601611613565b925050602061165e858286016113b0565b9150509250929050565b600060208201905061167d6000830184611424565b92915050565b60006020820190506116986000830184611433565b92915050565b600082825260208201905092915050565b7f4f6e6c792061646d696e00000000000000000000000000000000000000000000600082015250565b60006116e5600a8361169e565b91506116f0826116af565b602082019050919050565b60006020820190508181036000830152611714816116d8565b9050919050565b7f5265656e7472616e637920646574656374656400000000000000000000000000600082015250565b600061175160138361169e565b915061175c8261171b565b602082019050919050565b6000602082019050818103600083015261178081611744565b9050919050565b7f4e6f742064697370757465640000000000000000000000000000000000000000600082015250565b60006117bd600c8361169e565b91506117c882611787565b602082019050919050565b600060208201905081810360008301526117ec816117b0565b9050919050565b7f4e487b7100000000000000000000000000000000000000000000000000000000600052603260045260246000fd5b7f4e487b7100000000000000000000000000000000000000000000000000000000600052601160045260246000fd5b600061185c8261138f565b91506118678361138f565b925082820190508082111561187f5761187e611822565b5b92915050565b600081905092915050565b50565b60006118a0600083611885565b91506118ab82611890565b600082019050919050565b60006118c182611893565b9150819050919050565b7f5265736f6c7574696f6e207472616e73666572206661696c6564000000000000600082015250565b6000611901601a8361169e565b915061190c826118cb565b602082019050919050565b60006020820190508181036000830152611930816118f4565b9050919050565b600060408201905061194c6000830185611424565b6119596020830184611433565b9392505050565b7f53656e6420455448000000000000000000000000000000000000000000000000600082015250565b600061199660088361169e565b91506119a182611960565b602082019050919050565b600060208201905081810360008301526119c581611989565b9050919050565b7f496e76616c69642073656c6c6572000000000000000000000000000000000000600082015250565b6000611a02600e8361169e565b9150611a0d826119cc565b602082019050919050565b60006020820190508181036000830152611a31816119f5565b9050919050565b7f4275796572203d2073656c6c6572000000000000000000000000000000000000600082015250565b6000611a6e600e8361169e565b9150611a7982611a38565b602082019050919050565b60006020820190508181036000830152611a9d81611a61565b9050919050565b7f496e76616c6964206d696c6573746f6e65730000000000000000000000000000600082015250565b6000611ada60128361169e565b9150611ae582611aa4565b602082019050919050565b60006020820190508181036000830152611b0981611acd565b9050919050565b6000611b1b8261138f565b91507fffffffffffffffffffffffffffffffffffffffffffffffffffffffffffffffff8203611b4d57611b4c611822565b5b600182019050919050565b7f4e487b7100000000000000000000000000000000000000000000000000000000600052601260045260246000fd5b6000611b928261138f565b9150611b9d8361138f565b925082611bad57611bac611b58565b5b828204905092915050565b7f4e6f7420617574686f72697a6564000000000000000000000000000000000000600082015250565b6000611bee600e8361169e565b9150611bf982611bb8565b602082019050919050565b60006020820190508181036000830152611c1d81611be1565b9050919050565b7f43616e6e6f742064697370757465000000000000000000000000000000000000600082015250565b6000611c5a600e8361169e565b9150611c6582611c24565b602082019050919050565b60006020820190508181036000830152611c8981611c4d565b9050919050565b7f4f6e6c7920627579657200000000000000000000000000000000000000000000600082015250565b6000611cc6600a8361169e565b9150611cd182611c90565b602082019050919050565b60006020820190508181036000830152611cf581611cb9565b9050919050565b7f496e76616c696420737461746500000000000000000000000000000000000000600082015250565b6000611d32600d8361169e565b9150611d3d82611cfc565b602082019050919050565b60006020820190508181036000830152611d6181611d25565b9050919050565b7f416c72656164792072656c656173656400000000000000000000000000000000600082015250565b6000611d9e60108361169e565b9150611da982611d68565b602082019050919050565b60006020820190508181036000830152611dcd81611d91565b9050919050565b7f455448207472616e73666572206661696c656400000000000000000000000000600082015250565b6000611e0a60138361169e565b9150611e1582611dd4565b602082019050919050565b60006020820190508181036000830152611e3981611dfd565b9050919050565b7f4f6e6c792073656c6c6572000000000000000000000000000000000000000000600082015250565b6000611e76600b8361169e565b9150611e8182611e40565b602082019050919050565b60006020820190508181036000830152611ea581611e69565b9050919050565b7f416c6c206d696c6573746f6e657320646f6e6500000000000000000000000000600082015250565b6000611ee260138361169e565b9150611eed82611eac565b602082019050919050565b60006020820190508181036000830152611f1181611ed5565b905091905056fea26469706673582212209532bf8be7bd41203550c57713a6c12d0db5c9fed52fd529c15b31aef62b5e4164736f6c634300081c0033",
  "linkReferences": {},
  "deployedLinkReferences": {}
}